:10F800000C943E7C0C945B7C0C945B7C0C945B7C39
:10F810000C945B7C0C945B7C0C945B7C0C945B7C0C
:10F820000C945B7C0C945B7C0C945B7C0C945B7CFC
:10F830000C945B7C0C945B7C0C945B7C0C945B7CEC
:10F840000C945B7C0C945B7C0C945B7C0C945B7CDC
:10F850000C945B7C0C945B7C0C945B7C0C945B7CCC
:10F860000C945B7C0C945B7C0C945B7C0C945B7CBC
:10F870000C945B7C0C945B7C0C945B7C11241FBE11
:10F88000CFEFD0E1DEBFCDBF11E0A0E0B1E0E2EF0D
:10F89000FDEF02C005900D92A230B107D9F712E03A
:10F8A000A2E0B1E001C01D92AD30B107E1F70E94C6
:10F8B000147D0C94F77E0C94007C9091C00095FF11
:10F8C000FCCF8093C60008951F93982F959595952A
:10F8D00095959595905D182F1F701A3014F0195A50
:10F8E00001C0105D892F0E945D7C812F0E945D7C8C
:10F8F0001F910895EF92FF920F931F93EE24FF2420
:10F90000870113C00894E11CF11C011D111D81E445
:10F91000E81682E4F8068FE0080780E0180728F070
:10F92000E0910401F091050109958091C00087FFE5
:10F93000E9CF8091C6001F910F91FF90EF9008953D
:10F940001F930E947A7C182F0E945D7C113614F060
:10F95000175503C010330CF01053812F1F910895D9
:10F960001F930E94A07C182F0E94A07C1295107FEC
:10F97000810F1F9108951F93182F03C00E947A7C56
:10F9800011501123D9F71F9108951F93182F0E942A
:10F990007A7C803251F484E10E945D7C812F0E9448
:10F9A0005D7C80E10E945D7C0CC0809103018F5FD3
:10F9B00080930301853029F4E0910401F091050161
:10F9C00009951F9108950E947A7C803239F484E170
:10F9D0000E945D7C80E10E945D7C0895809103011E
:10F9E0008F5F80930301853029F4E0910401F09149
:10F9F00005010995089515C0109A2FEF31EE44E0E6
:10FA0000215030404040E1F700C0000010982FEF37
:10FA100031EE44E0215030404040E1F700C00000AA
:10FA20008150882349F70895BF92CF92DF92EF92D9
:10FA3000FF920F931F93CF93DF93000080E1809399
:10FA4000C4001092C50088E18093C10086E08093D5
:10FA5000C2005098589A089A83E00E94FB7CBB240D
:10FA6000B3940E947A7C803309F441C08133E1F47D
:10FA70000E947A7C803209F0ACC184E10E945D7CF6
:10FA800081E40E945D7C86E50E945D7C82E50E94A7
:10FA90005D7C80E20E945D7C89E40E945D7C83E560
:10FAA0000E945D7C80E522C1803439F40E947A7C1A
:10FAB0008638E8F00E947A7C1AC0813499F40E945A
:10FAC0007A7C803811F482E081C1813811F481E0C0
:10FAD0007DC1823811F480E179C1883909F075C19E
:10FAE00083E074C1823431F484E10E94BB7C0E94C3
:10FAF000E37CB7CF853411F485E0F7CF8035B9F3D7
:10FB00008235A9F3813599F3853549F40E947A7CD1
:10FB1000809306010E947A7C80930701E8CF8635A6
:10FB2000C9F40E947A7C803389F40E947A7C0E9416
:10FB30007A7C082F0E947A7C002311F48EE146C162
:10FB4000013011F486E942C18AE040C183E00E949D
:10FB5000BB7C3BC1843609F0CFC00E947A7C809385
:10FB600009020E947A7C8093080280910C028E7FA9
:10FB700080930C020E947A7C853429F480910C02D7
:10FB8000816080930C0208E011E06801EE24FF24FC
:10FB900008C00E947A7CF60181936F010894E11CF1
:10FBA000F11C8091080290910902E816F90688F389
:10FBB0000E947A7C803209F00CC180910C0280FF97
:10FBC0002AC08091060190910701880F991F909398
:10FBD00007018093060180E090E015C0F999FECFFF
:10FBE000209106013091070132BD21BDF8014191FC
:10FBF0008F0140BDFA9AF99A2F5F3F4F309307016A
:10FC00002093060101962091080230910902821783
:10FC1000930720F36AC080910701880F880B8B211E
:10FC200080930B028091060190910701880F991F24
:10FC300090930701809306018091080280FF09C01C
:10FC40008091080290910902019690930902809395
:10FC50000802F894F999FECF1127E0910601F0917E
:10FC60000701C8E0D1E080910802909109021030AC
:10FC700091F40091570001700130D9F303E0009333
:10FC80005700E8950091570001700130D9F301E168
:10FC900000935700E8950990199000915700017062
:10FCA0000130D9F301E000935700E895139510381F
:10FCB00098F011270091570001700130D9F305E049
:10FCC00000935700E8950091570001700130D9F377
:10FCD00001E100935700E8953296029709F0C7CFEB
:10FCE000103011F00296E5CF112484E10E945D7C72
:10FCF00080E10E945D7CB5CE843709F053C00E943C
:10FD00007A7C809309020E947A7C80930802809119
:10FD1000060190910701880F991F90930701809326
:10FD200006010E947A7C90910C02853411F4916056
:10FD300001C09E7F90930C020E947A7C803209F071
:10FD400090CE84E10E945D7C00E010E023C08091B1
:10FD50000C0280FF0BC0F999FECF809106019091B3
:10FD6000070192BD81BDF89A80B507C081FD07C02B
:10FD7000E0910601F091070184910E945D7C8091E1
:10FD80000601909107010196909307018093060167
:10FD90000F5F1F4F80910802909109020817190701
:10FDA000B0F2A6CF853779F40E947A7C803289F44C
:10FDB00084E10E945D7C8EE10E945D7C86E90E9468
:10FDC0005D7C8AE093CF863721F480E00E94C57C79
:10FDD00048CE809103018F5F80930301853009F045
:10FDE00040CEE0910401F091050109953ACEF894D6
:02FDF000FFCF43
:02FDF20080008F
:040000030000F80001
:00000001FF
