:020000021000EC
:10F000000C9446F80C9465F80C9465F80C9465F82B
:10F010000C9465F80C9465F80C9465F80C9465F8FC
:10F020000C9465F80C9465F80C9465F80C9465F8EC
:10F030000C9465F80C9465F80C9465F80C9465F8DC
:10F040000C9465F80C9465F80C9465F80C9465F8CC
:10F050000C9465F80C9465F80C9465F80C9465F8BC
:10F060000C9465F80C9465F80C9465F80C9465F8AC
:10F070000C9465F80C9465F80C9465F80C9465F89C
:10F080000C9465F80C9465F80C9465F811241FBE77
:10F09000CFEFD0E4DEBFCDBF11E0A0E0B1E0E0E310
:10F0A000F6EF01E00BBF02C007900D92A230B1074E
:10F0B000D9F712E0A2E0B1E001C01D92AD30B10776
:10F0C000E1F70E941EF90C9416FB0C9400F8909145
:10F0D000C00095FFFCCF8093C60008951F93982F22
:10F0E0009595959595959595905D182F1F701A306B
:10F0F00014F0195A01C0105D892F0E9467F8812F02
:10F100000E9467F81F910895EF92FF920F931F934B
:10F11000EE24FF24870113C00894E11CF11C011D9B
:10F12000111D81EDE81682E1F80683E1080780E011
:10F13000180728F0E0910401F091050109958091EC
:10F14000C00087FFE9CF8091C6001F910F91FF900B
:10F15000EF9008951F930E9484F8182F0E9467F87B
:10F16000113614F0175503C010330CF01053812FD3
:10F170001F9108951F930E94AAF8182F0E94AAF8C1
:10F180001295107F810F1F9108951F93182F03C0B0
:10F190000E9484F811501123D9F71F9108951F93ED
:10F1A000182F0E9484F8803251F484E10E9467F89D
:10F1B000812F0E9467F880E10E9467F80CC080915F
:10F1C00003018F5F80930301853029F4E0910401EE
:10F1D000F091050109951F9108950E9484F88032ED
:10F1E00039F484E10E9467F880E10E9467F808958D
:10F1F000809103018F5F80930301853029F4E091B2
:10F200000401F09105010995089515C0109A2FE7A2
:10F210003AE146E0215030404040E1F700C00000B4
:10F2200010982FE73AE146E0215030404040E1F7A6
:10F2300000C000008150882349F70895BF92CF9203
:10F24000DF92EF92FF920F931F93CF93DF93000013
:10F2500084E18093C4001092C50088E18093C100CE
:10F2600086E08093C2005098589A089A83E00E94E2
:10F2700005F9BB24B3940E9484F8803309F441C09B
:10F280008133E1F40E9484F8803209F0C1C184E145
:10F290000E9467F881E40E9467F886E50E9467F89B
:10F2A00082E50E9467F880E20E9467F889E40E9484
:10F2B00067F883E50E9467F880E523C1803439F45C
:10F2C0000E9484F88638E8F00E9484F81AC08134DD
:10F2D00099F40E9484F8803811F482E096C1813854
:10F2E00011F481E092C1823811F480E18EC1883935
:10F2F00009F08AC183E089C1823431F484E10E943B
:10F30000C5F80E94EDF8B7CF853411F485E0F7CF4A
:10F310008035B9F38235A9F3813599F3853549F400
:10F320000E9484F8809306010E9484F8809307016C
:10F33000E8CF8635C9F40E9484F8803389F40E94AE
:10F3400084F80E9484F8082F0E9484F8002311F4A6
:10F350008EE15BC1013011F487E957C185E055C1E9
:10F3600083E00E94C5F850C1843609F0D0C00E94E5
:10F3700084F8809309020E9484F8809308028091A7
:10F380000C028E7F80930C020E9484F8853429F44D
:10F3900080910C02816080930C0208E011E068010A
:10F3A000EE24FF2408C00E9484F8F60181936F01C7
:10F3B0000894E11CF11C8091080290910902E81662
:10F3C000F90688F30E9484F8803209F021C1809107
:10F3D0000C0280FF2AC08091060190910701880FDE
:10F3E000991F909307018093060180E090E015C07B
:10F3F000F999FECF209106013091070132BD21BD60
:10F40000F80141918F0140BDFA9AF99A2F5F3F4F61
:10F410003093070120930601019620910802309154
:10F4200009028217930720F36BC080910701880FB0
:10F43000880B8B2180930B028BBF809106019091EA
:10F440000701880F991F909307018093060180910F
:10F45000080280FF09C0809108029091090201967C
:10F460009093090280930802F894F999FECF11272E
:10F47000E0910601F0910701C8E0D1E08091080217
:10F4800090910902103091F4009157000170013001
:10F49000D9F303E000935700E895009157000170FD
:10F4A0000130D9F301E100935700E89509901990D4
:10F4B0000091570001700130D9F301E0009357002B
:10F4C000E8951395103898F01127009157000170B6
:10F4D0000130D9F305E000935700E89500915700FB
:10F4E00001700130D9F301E100935700E89532969D
:10F4F000029709F0C7CF103011F00296E5CF112422
:10F5000084E10E9467F880E10E9467F8B4CE8437F6
:10F5100009F067C00E9484F8809309020E9484F871
:10F5200080930802809106019091070120910C02BE
:10F5300097FF02C0226001C02D7F20930C02880F2C
:10F54000991F90930701809306010E9484F82091EF
:10F550000C02853411F4216001C02E7F20930C022F
:10F560000E9484F8803209F086CE84E10E9467F818
:10F5700000E010E02EC080910C0280FF0BC0F999D2
:10F58000FECF809106019091070192BD81BDF89A4E
:10F5900080B512C0E0910601F091070181FD02C023
:10F5A00084910AC0CF01A0E0B0E080509040AF4FFE
:10F5B000BF4FABBFFC0187910E9467F880910601A5
:10F5C00090910701019690930701809306010F5FC8
:10F5D0001F4F80910802909109020817190758F2ED
:10F5E00092CF853779F40E9484F8803289F484E1DF
:10F5F0000E9467F88EE10E9467F887E90E9467F829
:10F6000085E07FCF863721F480E00E94CFF833CEAB
:10F61000809103018F5F80930301853009F02BCE29
:10F62000E0910401F0910501099525CEF894FFCFF2
:02F63000800058
:040000031000F000F9
:00000001FF
